{
  "contractName": "ERC20HTLC",
  "abi": [
    {
      "constant": true,
      "inputs": [],
      "name": "praContractAddr",
      "outputs": [
        {
          "name": "",
          "type": "address"
        }
      ],
      "payable": false,
      "stateMutability": "view",
      "type": "function"
    },
    {
      "constant": true,
      "inputs": [],
      "name": "paused",
      "outputs": [
        {
          "name": "",
          "type": "bool"
        }
      ],
      "payable": false,
      "stateMutability": "view",
      "type": "function"
    },
    {
      "constant": true,
      "inputs": [],
      "name": "owner",
      "outputs": [
        {
          "name": "",
          "type": "address"
        }
      ],
      "payable": false,
      "stateMutability": "view",
      "type": "function"
    },
    {
      "constant": true,
      "inputs": [],
      "name": "admin",
      "outputs": [
        {
          "name": "",
          "type": "address"
        }
      ],
      "payable": false,
      "stateMutability": "view",
      "type": "function"
    },
    {
      "inputs": [
        {
          "name": "_praContract",
          "type": "address"
        }
      ],
      "payable": false,
      "stateMutability": "nonpayable",
      "type": "constructor"
    },
    {
      "payable": true,
      "stateMutability": "payable",
      "type": "fallback"
    },
    {
      "anonymous": false,
      "inputs": [
        {
          "indexed": true,
          "name": "_msgSender",
          "type": "address"
        },
        {
          "indexed": true,
          "name": "_recipientAddr",
          "type": "address"
        },
        {
          "indexed": true,
          "name": "_swapID",
          "type": "bytes32"
        },
        {
          "indexed": false,
          "name": "_randomNumberHash",
          "type": "bytes32"
        },
        {
          "indexed": false,
          "name": "_timestamp",
          "type": "uint64"
        },
        {
          "indexed": false,
          "name": "_expireHeight",
          "type": "uint256"
        },
        {
          "indexed": false,
          "name": "_outAmount",
          "type": "uint256"
        },
        {
          "indexed": false,
          "name": "_praAmount",
          "type": "uint256"
        },
        {
          "indexed": false,
          "name": "_receiverAddr",
          "type": "string"
        }
      ],
      "name": "HTLC",
      "type": "event"
    },
    {
      "anonymous": false,
      "inputs": [
        {
          "indexed": true,
          "name": "_msgSender",
          "type": "address"
        },
        {
          "indexed": true,
          "name": "_recipientAddr",
          "type": "address"
        },
        {
          "indexed": true,
          "name": "_swapID",
          "type": "bytes32"
        },
        {
          "indexed": false,
          "name": "_randomNumber",
          "type": "bytes32"
        },
        {
          "indexed": false,
          "name": "_receiverAddr",
          "type": "string"
        }
      ],
      "name": "Claimed",
      "type": "event"
    },
    {
      "anonymous": false,
      "inputs": [
        {
          "indexed": true,
          "name": "_msgSender",
          "type": "address"
        },
        {
          "indexed": true,
          "name": "_recipientAddr",
          "type": "address"
        },
        {
          "indexed": true,
          "name": "_swapID",
          "type": "bytes32"
        },
        {
          "indexed": false,
          "name": "_randomNumberHash",
          "type": "bytes32"
        },
        {
          "indexed": false,
          "name": "_receiverAddr",
          "type": "string"
        }
      ],
      "name": "Refunded",
      "type": "event"
    },
    {
      "constant": false,
      "inputs": [],
      "name": "pause",
      "outputs": [],
      "payable": false,
      "stateMutability": "nonpayable",
      "type": "function"
    },
    {
      "constant": false,
      "inputs": [],
      "name": "unpause",
      "outputs": [],
      "payable": false,
      "stateMutability": "nonpayable",
      "type": "function"
    },
    {
      "constant": false,
      "inputs": [
        {
          "name": "_new_admin",
          "type": "address"
        }
      ],
      "name": "setAdmin",
      "outputs": [],
      "payable": false,
      "stateMutability": "nonpayable",
      "type": "function"
    },
    {
      "constant": false,
      "inputs": [
        {
          "name": "_praContract",
          "type": "address"
        }
      ],
      "name": "setPraAddress",
      "outputs": [],
      "payable": false,
      "stateMutability": "nonpayable",
      "type": "function"
    },
    {
      "constant": false,
      "inputs": [
        {
          "name": "_randomNumberHash",
          "type": "bytes32"
        },
        {
          "name": "_timestamp",
          "type": "uint64"
        },
        {
          "name": "_heightSpan",
          "type": "uint256"
        },
        {
          "name": "_recipientAddr",
          "type": "address"
        },
        {
          "name": "_outAmount",
          "type": "uint256"
        },
        {
          "name": "_praAmount",
          "type": "uint256"
        },
        {
          "name": "_receiverAddr",
          "type": "string"
        }
      ],
      "name": "htlc",
      "outputs": [
        {
          "name": "",
          "type": "bool"
        }
      ],
      "payable": false,
      "stateMutability": "nonpayable",
      "type": "function"
    },
    {
      "constant": false,
      "inputs": [
        {
          "name": "_swapID",
          "type": "bytes32"
        },
        {
          "name": "_randomNumber",
          "type": "bytes32"
        }
      ],
      "name": "claim",
      "outputs": [
        {
          "name": "",
          "type": "bool"
        }
      ],
      "payable": false,
      "stateMutability": "nonpayable",
      "type": "function"
    },
    {
      "constant": false,
      "inputs": [
        {
          "name": "_swapID",
          "type": "bytes32"
        }
      ],
      "name": "refund",
      "outputs": [
        {
          "name": "",
          "type": "bool"
        }
      ],
      "payable": false,
      "stateMutability": "nonpayable",
      "type": "function"
    },
    {
      "constant": true,
      "inputs": [
        {
          "name": "_swapID",
          "type": "bytes32"
        }
      ],
      "name": "queryOpenSwap",
      "outputs": [
        {
          "name": "_randomNumberHash",
          "type": "bytes32"
        },
        {
          "name": "_timestamp",
          "type": "uint64"
        },
        {
          "name": "_expireHeight",
          "type": "uint256"
        },
        {
          "name": "_outAmount",
          "type": "uint256"
        },
        {
          "name": "_sender",
          "type": "address"
        },
        {
          "name": "_recipient",
          "type": "address"
        }
      ],
      "payable": false,
      "stateMutability": "view",
      "type": "function"
    },
    {
      "constant": true,
      "inputs": [
        {
          "name": "_swapID",
          "type": "bytes32"
        }
      ],
      "name": "isSwapExist",
      "outputs": [
        {
          "name": "",
          "type": "bool"
        }
      ],
      "payable": false,
      "stateMutability": "view",
      "type": "function"
    },
    {
      "constant": true,
      "inputs": [
        {
          "name": "_swapID",
          "type": "bytes32"
        }
      ],
      "name": "refundable",
      "outputs": [
        {
          "name": "",
          "type": "bool"
        }
      ],
      "payable": false,
      "stateMutability": "view",
      "type": "function"
    },
    {
      "constant": true,
      "inputs": [
        {
          "name": "_swapID",
          "type": "bytes32"
        }
      ],
      "name": "claimable",
      "outputs": [
        {
          "name": "",
          "type": "bool"
        }
      ],
      "payable": false,
      "stateMutability": "view",
      "type": "function"
    },
    {
      "constant": true,
      "inputs": [
        {
          "name": "_randomNumberHash",
          "type": "bytes32"
        },
        {
          "name": "receiverAddr",
          "type": "string"
        }
      ],
      "name": "calSwapID",
      "outputs": [
        {
          "name": "",
          "type": "bytes32"
        }
      ],
      "payable": false,
      "stateMutability": "pure",
      "type": "function"
    }
  ],
  "bytecode": "0x60806040526000600460146101000a81548160ff02191690831515021790555034801561002b57600080fd5b5060405160208061284e8339810180604052602081101561004b57600080fd5b810190808051906020019092919050505080600260006101000a81548173ffffffffffffffffffffffffffffffffffffffff021916908373ffffffffffffffffffffffffffffffffffffffff16021790555033600360006101000a81548173ffffffffffffffffffffffffffffffffffffffff021916908373ffffffffffffffffffffffffffffffffffffffff16021790555050612760806100ee6000396000f3fe6080604052600436106100f35760003560e01c806384cc9dfb1161008a578063b48017b111610059578063b48017b114610539578063c1f20d2214610617578063d203406114610668578063f851a4401461074e576100f3565b806384cc9dfb146103df5780638da5cb5b1461043c5780639b58e0a1146104935780639fb31475146104e6576100f3565b80635c975abb116100c65780635c975abb146102f5578063704b6c02146103245780637249fbb6146103755780638456cb59146103c8576100f3565b806304abb303146100f85780633f4ba83a1461014f5780634e928aaf1461016657806350f7a03b146102a2575b600080fd5b34801561010457600080fd5b5061010d6107a5565b604051808273ffffffffffffffffffffffffffffffffffffffff1673ffffffffffffffffffffffffffffffffffffffff16815260200191505060405180910390f35b34801561015b57600080fd5b506101646107cb565b005b34801561017257600080fd5b50610288600480360360e081101561018957600080fd5b8101908080359060200190929190803567ffffffffffffffff16906020019092919080359060200190929190803573ffffffffffffffffffffffffffffffffffffffff16906020019092919080359060200190929190803590602001909291908035906020019064010000000081111561020257600080fd5b82018360208201111561021457600080fd5b8035906020019184600183028401116401000000008311171561023657600080fd5b91908080601f016020809104026020016040519081016040528093929190818152602001838380828437600081840152601f19601f8201169050808301925050505050505091929192905050506108b3565b604051808215151515815260200191505060405180910390f35b3480156102ae57600080fd5b506102db600480360360208110156102c557600080fd5b8101908080359060200190929190505050611040565b604051808215151515815260200191505060405180910390f35b34801561030157600080fd5b5061030a611083565b604051808215151515815260200191505060405180910390f35b34801561033057600080fd5b506103736004803603602081101561034757600080fd5b81019080803573ffffffffffffffffffffffffffffffffffffffff169060200190929190505050611096565b005b34801561038157600080fd5b506103ae6004803603602081101561039857600080fd5b81019080803590602001909291905050506111c6565b604051808215151515815260200191505060405180910390f35b3480156103d457600080fd5b506103dd611762565b005b3480156103eb57600080fd5b506104226004803603604081101561040257600080fd5b81019080803590602001909291908035906020019092919050505061184b565b604051808215151515815260200191505060405180910390f35b34801561044857600080fd5b50610451611f3d565b604051808273ffffffffffffffffffffffffffffffffffffffff1673ffffffffffffffffffffffffffffffffffffffff16815260200191505060405180910390f35b34801561049f57600080fd5b506104cc600480360360208110156104b657600080fd5b8101908080359060200190929190505050611f63565b604051808215151515815260200191505060405180910390f35b3480156104f257600080fd5b5061051f6004803603602081101561050957600080fd5b8101908080359060200190929190505050611fc6565b604051808215151515815260200191505060405180910390f35b34801561054557600080fd5b506105726004803603602081101561055c57600080fd5b810190808035906020019092919050505061202a565b604051808781526020018667ffffffffffffffff1667ffffffffffffffff1681526020018581526020018481526020018373ffffffffffffffffffffffffffffffffffffffff1673ffffffffffffffffffffffffffffffffffffffff1681526020018273ffffffffffffffffffffffffffffffffffffffff1673ffffffffffffffffffffffffffffffffffffffff168152602001965050505050505060405180910390f35b34801561062357600080fd5b506106666004803603602081101561063a57600080fd5b81019080803573ffffffffffffffffffffffffffffffffffffffff169060200190929190505050612241565b005b34801561067457600080fd5b506107386004803603604081101561068b57600080fd5b8101908080359060200190929190803590602001906401000000008111156106b257600080fd5b8201836020820111156106c457600080fd5b803590602001918460018302840111640100000000831117156106e657600080fd5b91908080601f016020809104026020016040519081016040528093929190818152602001838380828437600081840152601f19601f820116905080830192505050505050509192919290505050612337565b6040518082815260200191505060405180910390f35b34801561075a57600080fd5b50610763612451565b604051808273ffffffffffffffffffffffffffffffffffffffff1673ffffffffffffffffffffffffffffffffffffffff16815260200191505060405180910390f35b600260009054906101000a900473ffffffffffffffffffffffffffffffffffffffff1681565b600460009054906101000a900473ffffffffffffffffffffffffffffffffffffffff1673ffffffffffffffffffffffffffffffffffffffff163373ffffffffffffffffffffffffffffffffffffffff1614806108745750600360009054906101000a900473ffffffffffffffffffffffffffffffffffffffff1673ffffffffffffffffffffffffffffffffffffffff163373ffffffffffffffffffffffffffffffffffffffff16145b61087d57600080fd5b600460149054906101000a900460ff1661089657600080fd5b6000600460146101000a81548160ff021916908315150217905550565b6000600460149054906101000a900460ff16156108cf57600080fd5b60006108db8984612337565b9050600060038111156108ea57fe5b6001600083815260200190815260200160002060009054906101000a900460ff16600381111561091657fe5b14610989576040517f08c379a00000000000000000000000000000000000000000000000000000000081526004018080602001828103825260198152602001807f73776170206973206f70656e65642070726576696f75736c790000000000000081525060200191505060405180910390fd5b603c871015801561099c575061ec408711155b6109f1576040517f08c379a000000000000000000000000000000000000000000000000000000000815260040180806020018281038252602481526020018061268e6024913960400191505060405180910390fd5b600073ffffffffffffffffffffffffffffffffffffffff168673ffffffffffffffffffffffffffffffffffffffff161415610a77576040517f08c379a000000000000000000000000000000000000000000000000000000000815260040180806020018281038252602181526020018061266d6021913960400191505060405180910390fd5b62989680851015610af0576040517f08c379a00000000000000000000000000000000000000000000000000000000081526004018080602001828103825260208152602001807f5f6f7574416d6f756e74206d757374206265206d6f7265207468616e20302e3181525060200191505060405180910390fd5b61070842038867ffffffffffffffff16118015610b1a575061038442018867ffffffffffffffff16105b610b6f576040517f08c379a00000000000000000000000000000000000000000000000000000000081526004018080602001828103825260538152602001806126b26053913960600191505060405180910390fd5b838514610bc7576040517f08c379a000000000000000000000000000000000000000000000000000000000815260040180806020018281038252602381526020018061261e6023913960400191505060405180910390fd5b610bcf612477565b604051806101200160405280878152602001438a0181526020018b81526020018a67ffffffffffffffff1681526020013373ffffffffffffffffffffffffffffffffffffffff16815260200160006001811115610c2857fe5b8152602001600180811115610c3957fe5b81526020018873ffffffffffffffffffffffffffffffffffffffff1681526020018581525090508060008084815260200190815260200160002060008201518160000155602082015181600101556040820151816002015560608201518160030160006101000a81548167ffffffffffffffff021916908367ffffffffffffffff16021790555060808201518160030160086101000a81548173ffffffffffffffffffffffffffffffffffffffff021916908373ffffffffffffffffffffffffffffffffffffffff16021790555060a0820151816004015560c0820151816005015560e08201518160060160006101000a81548173ffffffffffffffffffffffffffffffffffffffff021916908373ffffffffffffffffffffffffffffffffffffffff160217905550610100820151816007019080519060200190610d7f9291906124fc565b50905050600180600084815260200190815260200160002060006101000a81548160ff02191690836003811115610db257fe5b0217905550600260009054906101000a900473ffffffffffffffffffffffffffffffffffffffff1673ffffffffffffffffffffffffffffffffffffffff166323b872dd3330896040518463ffffffff1660e01b8152600401808473ffffffffffffffffffffffffffffffffffffffff1673ffffffffffffffffffffffffffffffffffffffff1681526020018373ffffffffffffffffffffffffffffffffffffffff1673ffffffffffffffffffffffffffffffffffffffff1681526020018281526020019350505050602060405180830381600087803b158015610e9457600080fd5b505af1158015610ea8573d6000803e3d6000fd5b505050506040513d6020811015610ebe57600080fd5b8101908080519060200190929190505050610f24576040517f08c379a00000000000000000000000000000000000000000000000000000000081526004018080602001828103825260308152602001806127056030913960400191505060405180910390fd5b818773ffffffffffffffffffffffffffffffffffffffff163373ffffffffffffffffffffffffffffffffffffffff167f5a0cc384a12a55445d4625db5d24f6a72177fd330644e2d4b3ea0ebd6f78c54d8d8d86602001518c8c8c604051808781526020018667ffffffffffffffff1667ffffffffffffffff16815260200185815260200184815260200183815260200180602001828103825283818151815260200191508051906020019080838360005b83811015610ff0578082015181840152602081019050610fd5565b50505050905090810190601f16801561101d5780820380516001836020036101000a031916815260200191505b5097505050505050505060405180910390a4600192505050979650505050505050565b600080600381111561104e57fe5b6001600084815260200190815260200160002060009054906101000a900460ff16600381111561107a57fe5b14159050919050565b600460149054906101000a900460ff1681565b600460009054906101000a900473ffffffffffffffffffffffffffffffffffffffff1673ffffffffffffffffffffffffffffffffffffffff163373ffffffffffffffffffffffffffffffffffffffff16148061113f5750600360009054906101000a900473ffffffffffffffffffffffffffffffffffffffff1673ffffffffffffffffffffffffffffffffffffffff163373ffffffffffffffffffffffffffffffffffffffff16145b61114857600080fd5b600073ffffffffffffffffffffffffffffffffffffffff168173ffffffffffffffffffffffffffffffffffffffff16141561118257600080fd5b80600460006101000a81548173ffffffffffffffffffffffffffffffffffffffff021916908373ffffffffffffffffffffffffffffffffffffffff16021790555050565b600081600160038111156111d657fe5b6001600083815260200190815260200160002060009054906101000a900460ff16600381111561120257fe5b14611275576040517f08c379a00000000000000000000000000000000000000000000000000000000081526004018080602001828103825260128152602001807f73776170206973206e6f74206f70656e6564000000000000000000000000000081525060200191505060405180910390fd5b8260008082815260200190815260200160002060010154431015611301576040517f08c379a00000000000000000000000000000000000000000000000000000000081526004018080602001828103825260138152602001807f73776170206973206e6f7420657870697265640000000000000000000000000081525060200191505060405180910390fd5b60036001600086815260200190815260200160002060006101000a81548160ff0219169083600381111561133157fe5b0217905550600080600086815260200190815260200160002060030160089054906101000a900473ffffffffffffffffffffffffffffffffffffffff16905060606000808781526020019081526020016000206007018054600181600116156101000203166002900480601f01602080910402602001604051908101604052809291908181526020018280546001816001161561010002031660029004801561141b5780601f106113f05761010080835404028352916020019161141b565b820191906000526020600020905b8154815290600101906020018083116113fe57829003601f168201915b505050505090506000806000888152602001908152602001600020600001549050600080600089815260200190815260200160002060020154905060008060008a815260200190815260200160002060060160009054906101000a900473ffffffffffffffffffffffffffffffffffffffff169050600260009054906101000a900473ffffffffffffffffffffffffffffffffffffffff1673ffffffffffffffffffffffffffffffffffffffff1663a9059cbb86856040518363ffffffff1660e01b8152600401808373ffffffffffffffffffffffffffffffffffffffff1673ffffffffffffffffffffffffffffffffffffffff16815260200182815260200192505050602060405180830381600087803b15801561153957600080fd5b505af115801561154d573d6000803e3d6000fd5b505050506040513d602081101561156357600080fd5b81019080805190602001909291905050506115c9576040517f08c379a00000000000000000000000000000000000000000000000000000000081526004018080602001828103825260348152602001806125ea6034913960400191505060405180910390fd5b6000808a8152602001908152602001600020600080820160009055600182016000905560028201600090556003820160006101000a81549067ffffffffffffffff02191690556003820160086101000a81549073ffffffffffffffffffffffffffffffffffffffff0219169055600482016000905560058201600090556006820160006101000a81549073ffffffffffffffffffffffffffffffffffffffff021916905560078201600061167d919061257c565b5050888173ffffffffffffffffffffffffffffffffffffffff163373ffffffffffffffffffffffffffffffffffffffff167f215e15eef6d0300f9e89d940198e4f7fc22e44b7c80118c03571cd96da6c6c9885886040518083815260200180602001828103825283818151815260200191508051906020019080838360005b838110156117175780820151818401526020810190506116fc565b50505050905090810190601f1680156117445780820380516001836020036101000a031916815260200191505b50935050505060405180910390a46001975050505050505050919050565b600460009054906101000a900473ffffffffffffffffffffffffffffffffffffffff1673ffffffffffffffffffffffffffffffffffffffff163373ffffffffffffffffffffffffffffffffffffffff16148061180b5750600360009054906101000a900473ffffffffffffffffffffffffffffffffffffffff1673ffffffffffffffffffffffffffffffffffffffff163373ffffffffffffffffffffffffffffffffffffffff16145b61181457600080fd5b600460149054906101000a900460ff161561182e57600080fd5b6001600460146101000a81548160ff021916908315150217905550565b6000826001600381111561185b57fe5b6001600083815260200190815260200160002060009054906101000a900460ff16600381111561188757fe5b146118fa576040517f08c379a00000000000000000000000000000000000000000000000000000000081526004018080602001828103825260128152602001807f73776170206973206e6f74206f70656e6564000000000000000000000000000081525060200191505060405180910390fd5b83600080828152602001908152602001600020600101544310611985576040517f08c379a00000000000000000000000000000000000000000000000000000000081526004018080602001828103825260178152602001807f7377617020697320616c7265616479206578706972656400000000000000000081525060200191505060405180910390fd5b848460028160008085815260200190815260200160002060030160009054906101000a900467ffffffffffffffff16604051602001808381526020018267ffffffffffffffff1667ffffffffffffffff1660c01b8152600801925050506040516020818303038152906040526040518082805190602001908083835b60208310611a245780518252602082019150602081019050602083039250611a01565b6001836020036101000a038019825116818451168082178552505050505050905001915050602060405180830381855afa158015611a66573d6000803e3d6000fd5b5050506040513d6020811015611a7b57600080fd5b81019080805190602001909291905050506000808481526020019081526020016000206002015414611b15576040517f08c379a00000000000000000000000000000000000000000000000000000000081526004018080602001828103825260148152602001807f696e76616c69642072616e646f6d4e756d62657200000000000000000000000081525060200191505060405180910390fd5b600460149054906101000a900460ff1615611b2f57600080fd5b60026001600089815260200190815260200160002060006101000a81548160ff02191690836003811115611b5f57fe5b0217905550600080600089815260200190815260200160002060060160009054906101000a900473ffffffffffffffffffffffffffffffffffffffff16905060606000808a81526020019081526020016000206007018054600181600116156101000203166002900480601f016020809104026020016040519081016040528092919081815260200182805460018160011615610100020316600290048015611c495780601f10611c1e57610100808354040283529160200191611c49565b820191906000526020600020905b815481529060010190602001808311611c2c57829003601f168201915b5050505050905060008060008b8152602001908152602001600020600001549050600260009054906101000a900473ffffffffffffffffffffffffffffffffffffffff1673ffffffffffffffffffffffffffffffffffffffff1663a9059cbb84836040518363ffffffff1660e01b8152600401808373ffffffffffffffffffffffffffffffffffffffff1673ffffffffffffffffffffffffffffffffffffffff16815260200182815260200192505050602060405180830381600087803b158015611d1357600080fd5b505af1158015611d27573d6000803e3d6000fd5b505050506040513d6020811015611d3d57600080fd5b8101908080519060200190929190505050611da3576040517f08c379a000000000000000000000000000000000000000000000000000000000815260040180806020018281038252602c815260200180612641602c913960400191505060405180910390fd5b6000808b8152602001908152602001600020600080820160009055600182016000905560028201600090556003820160006101000a81549067ffffffffffffffff02191690556003820160086101000a81549073ffffffffffffffffffffffffffffffffffffffff0219169055600482016000905560058201600090556006820160006101000a81549073ffffffffffffffffffffffffffffffffffffffff0219169055600782016000611e57919061257c565b5050898373ffffffffffffffffffffffffffffffffffffffff163373ffffffffffffffffffffffffffffffffffffffff167f07a9dd1ef03da239626dc5c5bac1995991043d2b6e0e23ca789bbc0a16eb911f8c866040518083815260200180602001828103825283818151815260200191508051906020019080838360005b83811015611ef1578082015181840152602081019050611ed6565b50505050905090810190601f168015611f1e5780820380516001836020036101000a031916815260200191505b50935050505060405180910390a4600197505050505050505092915050565b600360009054906101000a900473ffffffffffffffffffffffffffffffffffffffff1681565b60008060008381526020019081526020016000206001015443108015611fbf575060016003811115611f9157fe5b6001600084815260200190815260200160002060009054906101000a900460ff166003811115611fbd57fe5b145b9050919050565b6000806000838152602001908152602001600020600101544310158015612023575060016003811115611ff557fe5b6001600084815260200190815260200160002060009054906101000a900460ff16600381111561202157fe5b145b9050919050565b60008060008060008061203b612477565b600080898152602001908152602001600020604051806101200160405290816000820154815260200160018201548152602001600282015481526020016003820160009054906101000a900467ffffffffffffffff1667ffffffffffffffff1667ffffffffffffffff1681526020016003820160089054906101000a900473ffffffffffffffffffffffffffffffffffffffff1673ffffffffffffffffffffffffffffffffffffffff1673ffffffffffffffffffffffffffffffffffffffff16815260200160048201548152602001600582015481526020016006820160009054906101000a900473ffffffffffffffffffffffffffffffffffffffff1673ffffffffffffffffffffffffffffffffffffffff1673ffffffffffffffffffffffffffffffffffffffff168152602001600782018054600181600116156101000203166002900480601f0160208091040260200160405190810160405280929190818152602001828054600181600116156101000203166002900480156122025780601f106121d757610100808354040283529160200191612202565b820191906000526020600020905b8154815290600101906020018083116121e557829003601f168201915b5050505050815250509050806040015181606001518260200151836000015184608001518560e001519650965096509650965096505091939550919395565b600460009054906101000a900473ffffffffffffffffffffffffffffffffffffffff1673ffffffffffffffffffffffffffffffffffffffff163373ffffffffffffffffffffffffffffffffffffffff1614806122ea5750600360009054906101000a900473ffffffffffffffffffffffffffffffffffffffff1673ffffffffffffffffffffffffffffffffffffffff163373ffffffffffffffffffffffffffffffffffffffff16145b6122f357600080fd5b80600260006101000a81548173ffffffffffffffffffffffffffffffffffffffff021916908373ffffffffffffffffffffffffffffffffffffffff16021790555050565b6000600283836040516020018083815260200182805190602001908083835b602083106123795780518252602082019150602081019050602083039250612356565b6001836020036101000a038019825116818451168082178552505050505050905001925050506040516020818303038152906040526040518082805190602001908083835b602083106123e157805182526020820191506020810190506020830392506123be565b6001836020036101000a038019825116818451168082178552505050505050905001915050602060405180830381855afa158015612423573d6000803e3d6000fd5b5050506040513d602081101561243857600080fd5b8101908080519060200190929190505050905092915050565b600460009054906101000a900473ffffffffffffffffffffffffffffffffffffffff1681565b604051806101200160405280600081526020016000815260200160008019168152602001600067ffffffffffffffff168152602001600073ffffffffffffffffffffffffffffffffffffffff1681526020016000815260200160008152602001600073ffffffffffffffffffffffffffffffffffffffff168152602001606081525090565b828054600181600116156101000203166002900490600052602060002090601f016020900481019282601f1061253d57805160ff191683800117855561256b565b8280016001018555821561256b579182015b8281111561256a57825182559160200191906001019061254f565b5b50905061257891906125c4565b5090565b50805460018160011615610100020316600290046000825580601f106125a257506125c1565b601f0160209004906000526020600020908101906125c091906125c4565b5b50565b6125e691905b808211156125e25760008160009055506001016125ca565b5090565b9056fe4661696c656420746f207472616e73666572206c6f636b6564206173736574206261636b20746f20737761702063726561746f725f6f7574416d6f756e74206d75737420626520657175616c205f707261416d6f756e744661696c656420746f207472616e73666572206c6f636b656420617373657420746f20726563697069656e745f726563697069656e74416464722073686f756c64206e6f74206265207a65726f5f6865696768745370616e2073686f756c6420626520696e205b36302c2036303438305d54696d657374616d702063616e206e656974686572206265203135206d696e75746573206168656164206f66207468652063757272656e742074696d652c206e6f72203330206d696e75746573206c617465726661696c656420746f207472616e7366657220636c69656e7420617373657420746f207377617020636f6e7472616374a165627a7a7230582074029285c5d493faa4f8f92545ca44c7ea56e3496e636ba11c1bf0a5558b60660029",
  "source": "pragma solidity 0.5.8;\n\ninterface ERC20 {\n\tfunction totalSupply() external view returns (uint256);\n\tfunction balanceOf(address who) external view returns (uint256);\n\tfunction transfer(address to, uint256 value) external returns (bool);\n\tfunction allowance(address owner, address spender) external view returns (uint256);\n\tfunction transferFrom(address from, address to, uint256 value) external returns (bool);\n\tfunction approve(address spender, uint256 value) external returns (bool);\n}\n\ncontract ERC20HTLC {\n\tstruct Swap {\n\t\tuint256 outAmount; //The ERC20 Pra amount to swap out\n\t\tuint256 expireHeight; //The height of blocks to wait before the asset can be returned to sender\n\t\tbytes32 randomNumberHash;\n\t\tuint64 timestamp;\n\t\taddress senderAddr; //The swap creator address\n\t\tuint256 senderChainType;\n\t\tuint256 receiverChainType;\n\t\taddress recipientAddr; //The ethereum address to lock swapped assets, counter-party of senderAddr\n\t\tstring receiverAddr; //The PRA address (DID) to swap out\n\t}\n\n\tenum States {INVALID, OPEN, COMPLETED, EXPIRED}\n\n\tenum ChainTypes {ETH, PRA}\n\n\t// Events\n\tevent HTLC(\n\t\taddress indexed _msgSender,\n\t\taddress indexed _recipientAddr,\n\t\tbytes32 indexed _swapID,\n\t\tbytes32 _randomNumberHash,\n\t\tuint64 _timestamp,\n\t\tuint256 _expireHeight,\n\t\tuint256 _outAmount,\n\t\tuint256 _praAmount,\n\t\tstring _receiverAddr\n\t);\n\tevent Claimed(\n\t\taddress indexed _msgSender,\n\t\taddress indexed _recipientAddr,\n\t\tbytes32 indexed _swapID,\n\t\tbytes32 _randomNumber,\n\t\tstring _receiverAddr\n\t);\n\tevent Refunded(\n\t\taddress indexed _msgSender,\n\t\taddress indexed _recipientAddr,\n\t\tbytes32 indexed _swapID,\n\t\tbytes32 _randomNumberHash,\n\t\tstring _receiverAddr\n\t);\n\n\t// Storage, key: swapID\n\tmapping(bytes32 => Swap) private swaps;\n\tmapping(bytes32 => States) private swapStates;\n\n\taddress public praContractAddr;\n\taddress public owner;\n\taddress public admin;\n\n\t// whether the contract is paused\n    bool public paused = false;\n\n\t/// @notice Throws if the swap is not open.\n\tmodifier onlyOpenSwaps(bytes32 _swapID) {\n\t\trequire(swapStates[_swapID] == States.OPEN, \"swap is not opened\");\n\t\t_;\n\t}\n\n\t/// @notice Throws if the swap is already expired.\n\tmodifier onlyAfterExpireHeight(bytes32 _swapID) {\n\t\trequire(block.number >= swaps[_swapID].expireHeight, \"swap is not expired\");\n\t\t_;\n\t}\n\n\t/// @notice Throws if the expireHeight is reached\n\tmodifier onlyBeforeExpireHeight(bytes32 _swapID) {\n\t\trequire(block.number < swaps[_swapID].expireHeight, \"swap is already expired\");\n\t\t_;\n\t}\n\n\t/// @notice Throws if the random number is not valid.\n\tmodifier onlyWithRandomNumber(bytes32 _swapID, bytes32 _randomNumber) {\n\t\trequire(\n\t\t\tswaps[_swapID].randomNumberHash == sha256(abi.encodePacked(_randomNumber, swaps[_swapID].timestamp)),\n\t\t\t\"invalid randomNumber\"\n\t\t);\n\t\t_;\n\t}\n\n\t/// @param _praContract The PRA contract address\n\tconstructor(address _praContract) public {\n\t\tpraContractAddr = _praContract;\n\t\towner = msg.sender;\n\t}\n\n\t/// @notice Throws if the msg.sender is not admin or owner.\n\tmodifier onlyAdmin() {\n\t\trequire(msg.sender == admin || msg.sender == owner);\n\t\t_;\n\t}\n\n\t/// @notice Modifier to allow actions only when the contract IS NOT paused\n\tmodifier whenNotPaused() {\n\t\trequire(!paused);\n\t\t_;\n\t}\n\n\t/// @notice Modifier to allow actions only when the contract IS paused\n\tmodifier whenPaused {\n\t\trequire(paused);\n\t\t_;\n\t}\n\n\t/// @notice to pause the contract.\n\tfunction pause() public onlyAdmin whenNotPaused {\n\t\tpaused = true;\n\t}\n\n\t/// @notice to unpause the contract.\n\tfunction unpause() public onlyAdmin whenPaused {\n\t\tpaused = false;\n\t}\n\n\t/// @notice setAdmin set new admin address.\n\t///\n\t/// @param _new_admin The new admin address.\n\tfunction setAdmin(address _new_admin) public onlyAdmin {\n\t\trequire(_new_admin != address(0));\n\t\tadmin = _new_admin;\n\t}\n\n\t/// @notice setPraAddress set new PRA-ERC20 contract address.\n\t///\n\t/// @param _praContract The new PRA-ERC20 contract address.\n\tfunction setPraAddress(address _praContract) public onlyAdmin {\n\t\tpraContractAddr = _praContract;\n\t}\n\n\t// swap may only be built through the htlc function\n\tfunction() external payable { revert();\t}\n\n\t//TODO: init set recipientAddr\n\n\t/// @notice htlt locks asset to contract address and create an atomic swap.\n\t///\n\t/// @param _randomNumberHash The hash of the random number and timestamp\n\t/// @param _timestamp Counted by second\n\t/// @param _heightSpan The number of blocks to wait before the asset can be returned to sender\n\t/// @param _recipientAddr The ethereum address to lock swapped assets.\n\t/// @param _outAmount PRA ERC20 asset to swap out, precision is 18\n\t/// @param _praAmount PRA asset to swap in, precision is 18\n\t/// @param _receiverAddr PRA DID to swap in.\n\tfunction htlc(\n\t\tbytes32 _randomNumberHash,\n\t\tuint64 _timestamp,\n\t\tuint256 _heightSpan,\n\t\taddress _recipientAddr,\n\t\tuint256 _outAmount,\n\t\tuint256 _praAmount,\n\t\tstring memory _receiverAddr\n\t) public whenNotPaused returns (bool) {\n\t\tbytes32 swapID = calSwapID(_randomNumberHash, _receiverAddr);\n\t\trequire(swapStates[swapID] == States.INVALID, \"swap is opened previously\");\n\t\t// Assume average block time interval is 3 second\n\t\t// The heightSpan period should be more than 5 minutes and less than one week\n\t\trequire(_heightSpan >= 60 && _heightSpan <= 60480, \"_heightSpan should be in [60, 60480]\");\n\t\trequire(_recipientAddr != address(0), \"_recipientAddr should not be zero\");\n\t\trequire(_outAmount >= 10000000, \"_outAmount must be more than 0.1\");\n\t\trequire(\n\t\t\t_timestamp > now - 1800 && _timestamp < now + 900,\n\t\t\t\"Timestamp can neither be 15 minutes ahead of the current time, nor 30 minutes later\"\n\t\t);\n\t\trequire(_outAmount == _praAmount, \"_outAmount must be equal _praAmount\");\n\t\t//TODO: check _receiverAddr is valid\n\t\t//TODO: check _recipientAddr's auth\n\n\t\t// Store the details of the swap.\n\t\tSwap memory swap = Swap({\n\t\t\toutAmount: _outAmount,\n\t\t\texpireHeight: _heightSpan + block.number,\n\t\t\trandomNumberHash: _randomNumberHash,\n\t\t\ttimestamp: _timestamp,\n\t\t\tsenderAddr: msg.sender,\n\t\t\tsenderChainType: uint256(ChainTypes.ETH),\n\t\t\treceiverAddr: _receiverAddr,\n\t\t\treceiverChainType: uint256(ChainTypes.PRA),\n\t\t\trecipientAddr: _recipientAddr\n\t\t});\n\n\t\tswaps[swapID] = swap;\n\t\tswapStates[swapID] = States.OPEN;\n\n\t\t// Transfer pra token to the swap contract\n\t\trequire(\n\t\t\tERC20(praContractAddr).transferFrom(msg.sender, address(this), _outAmount),\n\t\t\t\"failed to transfer client asset to swap contract\"\n\t\t);\n\n\t\t// Emit initialization event\n\t\temit HTLC(\n\t\t\tmsg.sender,\n\t\t\t_recipientAddr,\n\t\t\tswapID,\n\t\t\t_randomNumberHash,\n\t\t\t_timestamp,\n\t\t\tswap.expireHeight,\n\t\t\t_outAmount,\n\t\t\t_praAmount,\n\t\t\t_receiverAddr\n\t\t);\n\n\t\treturn true;\n\t}\n\n\t/// @notice claim claims the previously locked asset.\n\t///\n\t/// @param _swapID The hash of randomNumberHash, swap creator and swap recipient\n\t/// @param _randomNumber The random number\n\tfunction claim(bytes32 _swapID, bytes32 _randomNumber)\n\t\texternal\n\t\tonlyOpenSwaps(_swapID)\n\t\tonlyBeforeExpireHeight(_swapID)\n\t\tonlyWithRandomNumber(_swapID, _randomNumber)\n\t\twhenNotPaused\n\t\treturns (bool)\n\t{\n\t\t// Complete the swap.\n\t\tswapStates[_swapID] = States.COMPLETED;\n\n\t\taddress recipientAddr = swaps[_swapID].recipientAddr;\n\t\tstring memory receiverAddr = swaps[_swapID].receiverAddr;\n\t\t//uint256 receiverChainType = swaps[_swapID].receiverChainType;\n\t\t//uint256 senderChainType = swaps[_swapID].senderChainType;\n\t\tuint256 outAmount = swaps[_swapID].outAmount;\n\t\t//bytes32 randomNumberHash = swaps[_swapID].randomNumberHash;\n\n\t\t// Pay erc20 token to recipient\n\t\trequire(\n\t\t\tERC20(praContractAddr).transfer(recipientAddr, outAmount),\n\t\t\t\"Failed to transfer locked asset to recipient\"\n\t\t);\n\n\t\t// delete closed swap\n\t\tdelete swaps[_swapID];\n\n\t\t// Emit completion event\n\t\temit Claimed(msg.sender, recipientAddr, _swapID, _randomNumber, receiverAddr);\n\n\t\treturn true;\n\t}\n\n\t/// @notice refund refunds the previously locked asset.\n\t///\n\t/// @param _swapID The hash of randomNumberHash, swap creator and swap recipient\n\tfunction refund(bytes32 _swapID) external onlyOpenSwaps(_swapID) onlyAfterExpireHeight(_swapID) returns (bool) {\n\t\t// Expire the swap.\n\t\tswapStates[_swapID] = States.EXPIRED;\n\n\t\taddress swapSender = swaps[_swapID].senderAddr;\n\t\tstring memory receiverAddr = swaps[_swapID].receiverAddr;\n\t\tuint256 outAmount = swaps[_swapID].outAmount;\n\t\tbytes32 randomNumberHash = swaps[_swapID].randomNumberHash;\n\t\taddress recipientAddr = swaps[_swapID].recipientAddr;\n\n\t\t// refund erc20 token to swap creator\n\t\trequire(\n\t\t\tERC20(praContractAddr).transfer(swapSender, outAmount),\n\t\t\t\"Failed to transfer locked asset back to swap creator\"\n\t\t);\n\n\t\t// delete closed swap\n\t\tdelete swaps[_swapID];\n\n\t\t// Emit expire event\n\t\temit Refunded(msg.sender, recipientAddr, _swapID, randomNumberHash, receiverAddr);\n\n\t\treturn true;\n\t}\n\n\t/// @notice query an atomic swap by randomNumberHash\n\t///\n\t/// @param _swapID The hash of randomNumberHash, swap creator and swap recipient\n\tfunction queryOpenSwap(bytes32 _swapID)\n\t\texternal\n\t\tview\n\t\treturns (\n\t\t\tbytes32 _randomNumberHash,\n\t\t\tuint64 _timestamp,\n\t\t\tuint256 _expireHeight,\n\t\t\tuint256 _outAmount,\n\t\t\taddress _sender,\n\t\t\taddress _recipient\n\t\t)\n\t{\n\t\tSwap memory swap = swaps[_swapID];\n\t\treturn (\n\t\t\tswap.randomNumberHash,\n\t\t\tswap.timestamp,\n\t\t\tswap.expireHeight,\n\t\t\tswap.outAmount,\n\t\t\tswap.senderAddr,\n\t\t\tswap.recipientAddr\n\t\t);\n\t}\n\n\t/// @notice Checks whether a swap with specified swapID exist\n\t///\n\t/// @param _swapID The hash of randomNumberHash, swap creator and swap recipient\n\tfunction isSwapExist(bytes32 _swapID) external view returns (bool) {\n\t\treturn (swapStates[_swapID] != States.INVALID);\n\t}\n\n\t/// @notice Checks whether a swap is refundable or not.\n\t///\n\t/// @param _swapID The hash of randomNumberHash, swap creator and swap recipient\n\tfunction refundable(bytes32 _swapID) external view returns (bool) {\n\t\treturn (block.number >= swaps[_swapID].expireHeight && swapStates[_swapID] == States.OPEN);\n\t}\n\n\t/// @notice Checks whether a swap is claimable or not.\n\t///\n\t/// @param _swapID The hash of randomNumberHash, swap creator and swap recipient\n\tfunction claimable(bytes32 _swapID) external view returns (bool) {\n\t\treturn (block.number < swaps[_swapID].expireHeight && swapStates[_swapID] == States.OPEN);\n\t}\n\n\t/// @notice Calculate the swapID from randomNumberHash and swapCreator\n\t///\n\t/// @param _randomNumberHash The hash of random number and timestamp.\n\t/// @param receiverAddr The PRA address (DID) to swap out\n\tfunction calSwapID(bytes32 _randomNumberHash, string memory receiverAddr) public pure returns (bytes32) {\n\t\treturn sha256(abi.encodePacked(_randomNumberHash, receiverAddr));\n\t}\n}\n",
  "sourcePath": "/Users/jingleizhang/git/chainpro/prochain-substrate/ethereum/erc20-htlc-swap/contracts/ERC20HTLC.sol",
  "compiler": {
    "name": "solc",
    "version": "0.5.8+commit.23d335f2.Emscripten.clang"
  },
  "schemaVersion": "3.0.16",
  "updatedAt": "2019-12-27T11:24:27.980Z",
  "devdoc": {
    "methods": {
      "calSwapID(bytes32,string)": {
        "params": {
          "_randomNumberHash": "The hash of random number and timestamp.",
          "receiverAddr": "The PRA address (DID) to swap out"
        }
      },
      "claim(bytes32,bytes32)": {
        "params": {
          "_randomNumber": "The random number",
          "_swapID": "The hash of randomNumberHash, swap creator and swap recipient"
        }
      },
      "claimable(bytes32)": {
        "params": {
          "_swapID": "The hash of randomNumberHash, swap creator and swap recipient"
        }
      },
      "constructor": {
        "params": {
          "_praContract": "The PRA contract address"
        }
      },
      "htlc(bytes32,uint64,uint256,address,uint256,uint256,string)": {
        "params": {
          "_heightSpan": "The number of blocks to wait before the asset can be returned to sender",
          "_outAmount": "PRA ERC20 asset to swap out, precision is 18",
          "_praAmount": "PRA asset to swap in, precision is 18",
          "_randomNumberHash": "The hash of the random number and timestamp",
          "_receiverAddr": "PRA DID to swap in.",
          "_recipientAddr": "The ethereum address to lock swapped assets.",
          "_timestamp": "Counted by second"
        }
      },
      "isSwapExist(bytes32)": {
        "params": {
          "_swapID": "The hash of randomNumberHash, swap creator and swap recipient"
        }
      },
      "queryOpenSwap(bytes32)": {
        "params": {
          "_swapID": "The hash of randomNumberHash, swap creator and swap recipient"
        }
      },
      "refund(bytes32)": {
        "params": {
          "_swapID": "The hash of randomNumberHash, swap creator and swap recipient"
        }
      },
      "refundable(bytes32)": {
        "params": {
          "_swapID": "The hash of randomNumberHash, swap creator and swap recipient"
        }
      },
      "setAdmin(address)": {
        "params": {
          "_new_admin": "The new admin address."
        }
      },
      "setPraAddress(address)": {
        "params": {
          "_praContract": "The new PRA-ERC20 contract address."
        }
      }
    }
  },
  "userdoc": {
    "methods": {
      "calSwapID(bytes32,string)": {
        "notice": "Calculate the swapID from randomNumberHash and swapCreator "
      },
      "claim(bytes32,bytes32)": {
        "notice": "claim claims the previously locked asset. "
      },
      "claimable(bytes32)": {
        "notice": "Checks whether a swap is claimable or not. "
      },
      "htlc(bytes32,uint64,uint256,address,uint256,uint256,string)": {
        "notice": "htlt locks asset to contract address and create an atomic swap. "
      },
      "isSwapExist(bytes32)": {
        "notice": "Checks whether a swap with specified swapID exist "
      },
      "pause()": {
        "notice": "to pause the contract."
      },
      "queryOpenSwap(bytes32)": {
        "notice": "query an atomic swap by randomNumberHash "
      },
      "refund(bytes32)": {
        "notice": "refund refunds the previously locked asset. "
      },
      "refundable(bytes32)": {
        "notice": "Checks whether a swap is refundable or not. "
      },
      "setAdmin(address)": {
        "notice": "setAdmin set new admin address. "
      },
      "setPraAddress(address)": {
        "notice": "setPraAddress set new PRA-ERC20 contract address. "
      },
      "unpause()": {
        "notice": "to unpause the contract."
      }
    }
  }
}